:100000000A128A11FC2F00308A000408840A820731
:10001000003453346C3461347634653420345234D3
:1000200065346134643479340D340A340034543422
:1000300065346D3470342034533465346E34743424
:100040003A3420340034203443340D340A3400343C
:100334004130831203139F008030831603139F0000
:100344000800F800831203130C1EA929AA29A42962
:100354007808990008001930831603139900243093
:100364009800903083120313980008008316031337
:10037400851687150716871240309400243083129F
:100384000313940008000330F3009730F200F20BDB
:10039400C929F30BC929CE29831203131F151F1969
:1003A400D429D529D1291E08F100831603131E0868
:1003B400F0000800EB29790884000A128A1103204E
:1003C4000A128A110A128A11A3210A128A1101300F
:1003D400F907790884000A128A1103200A128A1183
:1003E400003A031DF629F729DD290800F800F40175
:1003F400F5017008F200F3017208F6007308F700C3
:10040400781C052A062A0C2A7608F4070318F50A2C
:100414007708F50701300310F60DF70DFF3E031DB5
:100424000D2A0310F80C7808031D192A1A2A022A27
:100434007508F1007408F0000800F501F31F232A81
:10044400242A2B2AF209F309F20A0319F30A0130C8
:10045400F500F11F2E2A2F2A342AF009F109F00A97
:100464000319F10A700871040319392A3A2A672A10
:100474000130F400462A01300310F00DF10DFF3E67
:10048400031D3E2A0130F407F11F492A4A2A3D2A56
:1004940071087302031D502A70087202031C532A48
:1004A400542A5A2A7008F2027108031CF303F30257
:1004B40001300310F10CF00CFF3E031D5B2A0130E8
:1004C400F402031D662A672A4A2A750803196B2A4F
:1004D4006C2A712AF209F309F20A0319F30A730860
:1004E400F1007208F0000800F501F11F7A2A7B2A56
:1004F400822AF009F109F00A0319F10A0130F50022
:10050400F31F852A862A8D2AF209F309F20A0319B0
:10051400F30A0130F506F601F701700871040319B6
:10052400942A952ACA2A0130F400A12A0130031022
:10053400F00DF10DFF3E031D992A0130F407F11F60
:10054400A42AA52A982A01300310F60DF70DFF3EC0
:10055400031DA62A71087302031DB22A70087202D1
:10056400031CB52AB62ABD2A7008F2027108031CBE
:10057400F303F302761401300310F10CF00CFF3E88
:10058400031DBE2A0130F402031DC92ACA2AA52A62
:1005940075080319CE2ACF2AD42AF609F709F60AD0
:1005A4000319F70A7708F1007608F0000800031031
:1005B400831203133C0D3D0DC3004308031DE32ABE
:1005C400E42AED2A0030BD000030BC000030BB003E
:1005D4000030BA004E2B3A08BE003B08BF003C086E
:1005E400C0003D08C1001F300310C10CC00CBF0C7B
:1005F400BE0CFF3E031DF62A3E08C200BC17FF30A6
:10060400BA05FF30BB05FF30BC050030BD05963090
:10061400C302C31F0E2B0F2B272B4308803A973E90
:100624000318152B162B172BE42A01300310BD0CCD
:10063400BC0CBB0CBA0CFF3E031D182B0130C307C6
:10064400031D252B262B172B3E2B20304302031C86
:100654002C2B2D2B392BE42A0130BE000310BA0DAC
:10066400BB0DBC0DBD0DBE0B302B0130C3024308C6
:10067400031D3D2B3E2B2E2B42080319422B432BEB
:100684004E2BBA09BB09BC09BD09BA0A0319BB0A36
:100694000319BC0A0319BD0A0800F80078080319F5
:1006A400542B552B692BF31F582B592B692B70098D
:1006B400FA007109FB007209FC007309FD00FA0AD3
:1006C4000319FB0A0319FC0A0319FD0A712B7308A9
:1006D400FD007208FC007108FB007008FA00730842
:1006E400720471047004031D782B792B822B003063
:1006F400F3000030F2000030F1000030F000022C72
:100704009630F900902B0130F90701300310FD0CED
:10071400FC0CFB0CFA0CFF3E031D882BFE307D0500
:10072400031D952B962B852BB02B0130F907013037
:10073400FA07003003180130FB07003003180130BA
:10074400FC07003003180130FD0701300310FD0CD5
:10075400FC0CFB0CFA0CFF3E031DA82BFF307D059F
:10076400031DB52BB62B972BC22B0130F902013098
:10077400F4000310FA0DFB0DFC0DFD0DF40BBB2B67
:10078400FC1BC52BC62BCC2B023079020318CB2BB8
:10079400CC2BB72B7918CF2BD02BD82BFF30FA05C5
:1007A400FF30FB057F30FC05FF30FD050310F90C1D
:1007B4007908F400F501F601F70118300310F40D7F
:1007C400F50DF60DF70DFF3E031DE02B7408FA043A
:1007D4007508FB047608FC047708FD0478080319FF
:1007E400F42BF52BFA2BF31FF82BF92BFA2BFD170F
:1007F4007D08F3007C08F2007B08F1007A08F00021
:1008040008000A128A119A210A128A110A128A11FC
:10081400AD210A128A110A128A11B8210A128A1108
:100824000130F9000A128A11DC210A128A1183129A
:100834000313851A1E2C1F2C192C0A128A11C52188
:100844000A128A11710883120313C8007008C700C2
:100854004708F0004808F100F201F30100300A12E1
:100864008A114F230A128A11730883120313A700F3
:100874007208A6007108A5007008A4003E30A30009
:10088400F930A200DB30A1002330A0000A128A1143
:10089400BA240A128A11831203132308BD00220802
:1008A400BC002108BB002008BA000A128A11D92210
:1008B4000A128A11831203133A08C90049089300E3
:1008C40083160313141C672C682C622C0F30F90058
:1008D4000A128A11DC210A128A110A30F00000304F
:1008E400F100831203134908C400C5014408F2004F
:1008F4004508F3000A128A1176220A128A11700836
:10090400303E0A128A11A3210A128A110A30F00019
:100914000030F100831203134908C400C5014408E0
:10092400F2004508F3000A128A111F220A128A11E2
:100934007008303E0A128A11A3210A128A111B3050
:10094400F9000A128A11DC210A128A110630831274
:100954000313C6001330C500AD30C400C40BB02C63
:10096400C50BB02CC60BB02C192C0A128A11002806
:10097400831203132308AD008030AD052308A800BB
:100984002807B300A21FC72CC82CC92C3314330862
:100994000319CD2CCE2CDD2C330A031DD22CD32CE1
:1009A400DB2C0030A3000030A2000030A100003096
:1009B400A000A217E52C0030A3000030A2000030F4
:1009C400A1000030A00027088039AD062708A80040
:1009D4002807B200A61FEF2CF02CF12C3214320899
:1009E4000319F52CF62C052D320A031DFA2CFB2CC9
:1009F400032D0030A7000030A6000030A500003011
:100A0400A400A6170D2D0030A7000030A60000306A
:100A1400A5000030A40032080319112D122D172D42
:100A24003308031D162D172D202D0030A300003090
:100A3400A2000030A1000030A000FB2F2008F0002D
:100A440026080A128A11F8210A128A1171088312DF
:100A54000313B9007008B8003808A800A901AA0156
:100A6400AB012B08B1002A08B0002908AF00280800
:100A7400AE003908A800A901AA01AB012B08B700F0
:100A84002A08B6002908B5002808B4002108F00097
:100A940025080A128A11F8210A128A117108831290
:100AA4000313B9007008B8003808A800A901AA0106
:100AB400AB012808AE07290803110318013E0319E6
:100AC400642DAF072A0803110318013E03196B2D87
:100AD400B0072B0803110318013E0319722DB10747
:100AE4003908A800A901AA01AB012808B4072908FC
:100AF40003110318013E0319802DB5072A080311B9
:100B04000318013E0319872DB6072B080311031898
:100B1400013E03198E2DB7072208F00024080A129B
:100B24008A11F8210A128A11710883120313B90079
:100B34007008B8003808A800A901AA01AB01280868
:100B4400AE07290803110318013E0319AA2DAF07A4
:100B54002A0803110318013E0319B12DB0072B080D
:100B640003110318013E0319B82DB1073908A80071
:100B7400A901AA01AB012808B40729080311031825
:100B8400013E0319C62DB5072A0803110318013EB7
:100B94000319CD2DB6072B0803110318013E0319C1
:100BA400D42DB7070830A8000310AE0DAF0DB00D5B
:100BB400B10DA80BD62D2108F00024080A128A11C1
:100BC400F8210A128A11710883120313B9007008FC
:100BD400B8003808A8003908A900AA01AB01280800
:100BE400AE07290803110318013E0319FA2DAF07B4
:100BF4002A0803110318013E0319012EB0072B081C
:100C040003110318013E0319082EB1072008F00050
:100C140025080A128A11F8210A128A11710883120E
:100C24000313B9007008B8003808A8003908A900EF
:100C3400AA01AB012808AE07290803110318013ED5
:100C44000319252EAF072A0803110318013E0319BF
:100C54002C2EB0072B0803110318013E0319332E61
:100C6400B1070830A8000310AE0DAF0DB00DB10DE3
:100C7400A80B352E2008F00024080A128A11F82146
:100C84000A128A11710883120313B9007008B8009C
:100C94003808A8003908A900AA01AB012808AE0742
:100CA400290803110318013E0319592EAF072A0816
:100CB40003110318013E0319602EB0072B0803111A
:100CC4000318013E0319672EB1072108F000260816
:100CD4000A128A11F8210A128A1171088312031365
:100CE400B9007008B8003808A8003908A900AA019A
:100CF400AB012808B407290803110318013E03199E
:100D0400842EB5072A0803110318013E03198B2EFC
:100D1400B6072B0803110318013E0319922EB707D7
:100D24002208F00025080A128A11F8210A128A11F1
:100D3400710883120313B9007008B8003808A800BA
:100D44003908A900AA01AB012808B407290803112E
:100D54000318013E0319AF2EB5072A08031103181F
:100D6400013E0319B62EB6072B0803110318013EE2
:100D74000319BD2EB7072208F00026080A128A11AB
:100D8400F8210A128A11710883120313B90070083A
:100D9400B8003808A8003908A900AA01AB01083036
:100DA4000310A80DA90DAA0DAB0DFF3E031DD22EF5
:100DB4002808B407290803110318013E0319E32E78
:100DC400B5072A0803110318013E0319EA2EB607D2
:100DD4002B0803110318013E0319F12EB7072E083F
:100DE400A8002F08A9003008AA003108AB00183069
:100DF4000310AB0CAA0CA90CA80CFF3E031DFA2E81
:100E04002808B407290803110318013E03190B2FFE
:100E1400B5072A0803110318013E0319122FB60758
:100E24002B0803110318013E0319192FB7070830C3
:100E3400A8000310AE0DAF0DB00DB10DA80B1B2F04
:100E440033083207A800A901A90D2808823EB8007A
:100E540029080318013EFF3EB9004D2F0130A800B8
:100E64000310B40DB50DB60DB70DA80B322FB11F7D
:100E74003C2F3D2F3E2F34140130A8000310AE0D3B
:100E8400AF0DB00DB10DA80B402FFF30B8070318FC
:100E9400B90AFF30B907B61F502F512F302FB201B6
:100EA400B11F552F562F722FFF302E05A800FF308B
:100EB4002F05A900FF303005AA007F303105AB00B3
:100EC4002B082A04290428040319692F6A2F6D2F7B
:100ED4000130B200722F341C702F712F722F6A2FC1
:100EE40032080319762F772FA82F0130B40700306A
:100EF40003180130B507003003180130B60700307D
:100F040003180130B707371C882F892FA82F3408FE
:100F1400A8003508A9003608AA003708AB0001303C
:100F2400AC002B0DAB0CAA0CA90CA80CAC0B932F8A
:100F34002B08B7002A08B6002908B5002808B40011
:100F44000130B8070318B90A0030B9073908803AE4
:100F5400FF0080307F02031DB12FFF303802031CD5
:100F6400B42FB52FC02F7F3083120313B700803006
:100F7400B6000030B5000030B400F12F8312031323
:100F84003908803AFF0080307F02031DCB2F0130E7
:100F940038020318CE2FCF2FDB2F00308312031318
:100FA400B7000030B6000030B5000030B400AD0129
:100FB400F12F831203133808B300FF30B405FF3058
:100FC400B5057F30B6050030B705331CEA2FEB2F8B
:100FD400EC2FB6173308A8000310280CB7002D080F
:100FE400B7043708A3003608A2003508A100340866
:0C0FF400A000080083010A128A11032CDF
:02400E007A3FF7
:00000001FF
